{
  "_format": "hh-sol-artifact-1",
  "contractName": "VGAUToken",
  "sourceName": "contracts/VGAUToken.sol",
  "abi": [
    {
      "inputs": [
        {
          "internalType": "address",
          "name": "accessControlContract_",
          "type": "address"
        }
      ],
      "stateMutability": "nonpayable",
      "type": "constructor"
    },
    {
      "inputs": [
        {
          "internalType": "address",
          "name": "spender",
          "type": "address"
        },
        {
          "internalType": "uint256",
          "name": "allowance",
          "type": "uint256"
        },
        {
          "internalType": "uint256",
          "name": "needed",
          "type": "uint256"
        }
      ],
      "name": "ERC20InsufficientAllowance",
      "type": "error"
    },
    {
      "inputs": [
        {
          "internalType": "address",
          "name": "sender",
          "type": "address"
        },
        {
          "internalType": "uint256",
          "name": "balance",
          "type": "uint256"
        },
        {
          "internalType": "uint256",
          "name": "needed",
          "type": "uint256"
        }
      ],
      "name": "ERC20InsufficientBalance",
      "type": "error"
    },
    {
      "inputs": [
        {
          "internalType": "address",
          "name": "approver",
          "type": "address"
        }
      ],
      "name": "ERC20InvalidApprover",
      "type": "error"
    },
    {
      "inputs": [
        {
          "internalType": "address",
          "name": "receiver",
          "type": "address"
        }
      ],
      "name": "ERC20InvalidReceiver",
      "type": "error"
    },
    {
      "inputs": [
        {
          "internalType": "address",
          "name": "sender",
          "type": "address"
        }
      ],
      "name": "ERC20InvalidSender",
      "type": "error"
    },
    {
      "inputs": [
        {
          "internalType": "address",
          "name": "spender",
          "type": "address"
        }
      ],
      "name": "ERC20InvalidSpender",
      "type": "error"
    },
    {
      "inputs": [],
      "name": "EnforcedPause",
      "type": "error"
    },
    {
      "inputs": [],
      "name": "ExpectedPause",
      "type": "error"
    },
    {
      "anonymous": false,
      "inputs": [
        {
          "indexed": true,
          "internalType": "address",
          "name": "owner",
          "type": "address"
        },
        {
          "indexed": true,
          "internalType": "address",
          "name": "spender",
          "type": "address"
        },
        {
          "indexed": false,
          "internalType": "uint256",
          "name": "value",
          "type": "uint256"
        }
      ],
      "name": "Approval",
      "type": "event"
    },
    {
      "anonymous": false,
      "inputs": [
        {
          "indexed": true,
          "internalType": "address",
          "name": "from",
          "type": "address"
        },
        {
          "indexed": false,
          "internalType": "uint256",
          "name": "amount",
          "type": "uint256"
        },
        {
          "indexed": true,
          "internalType": "address",
          "name": "burner",
          "type": "address"
        }
      ],
      "name": "Burned",
      "type": "event"
    },
    {
      "anonymous": false,
      "inputs": [
        {
          "indexed": true,
          "internalType": "address",
          "name": "to",
          "type": "address"
        },
        {
          "indexed": false,
          "internalType": "uint256",
          "name": "amount",
          "type": "uint256"
        },
        {
          "indexed": true,
          "internalType": "address",
          "name": "minter",
          "type": "address"
        }
      ],
      "name": "Minted",
      "type": "event"
    },
    {
      "anonymous": false,
      "inputs": [
        {
          "indexed": false,
          "internalType": "address",
          "name": "account",
          "type": "address"
        }
      ],
      "name": "Paused",
      "type": "event"
    },
    {
      "anonymous": false,
      "inputs": [
        {
          "indexed": true,
          "internalType": "address",
          "name": "from",
          "type": "address"
        },
        {
          "indexed": true,
          "internalType": "address",
          "name": "to",
          "type": "address"
        },
        {
          "indexed": false,
          "internalType": "uint256",
          "name": "value",
          "type": "uint256"
        }
      ],
      "name": "Transfer",
      "type": "event"
    },
    {
      "anonymous": false,
      "inputs": [
        {
          "indexed": false,
          "internalType": "address",
          "name": "account",
          "type": "address"
        }
      ],
      "name": "Unpaused",
      "type": "event"
    },
    {
      "inputs": [
        {
          "internalType": "address",
          "name": "owner",
          "type": "address"
        },
        {
          "internalType": "address",
          "name": "spender",
          "type": "address"
        }
      ],
      "name": "allowance",
      "outputs": [
        {
          "internalType": "uint256",
          "name": "",
          "type": "uint256"
        }
      ],
      "stateMutability": "view",
      "type": "function"
    },
    {
      "inputs": [
        {
          "internalType": "address",
          "name": "spender",
          "type": "address"
        },
        {
          "internalType": "uint256",
          "name": "value",
          "type": "uint256"
        }
      ],
      "name": "approve",
      "outputs": [
        {
          "internalType": "bool",
          "name": "",
          "type": "bool"
        }
      ],
      "stateMutability": "nonpayable",
      "type": "function"
    },
    {
      "inputs": [
        {
          "internalType": "address",
          "name": "account",
          "type": "address"
        }
      ],
      "name": "balanceOf",
      "outputs": [
        {
          "internalType": "uint256",
          "name": "",
          "type": "uint256"
        }
      ],
      "stateMutability": "view",
      "type": "function"
    },
    {
      "inputs": [
        {
          "internalType": "uint256",
          "name": "amount",
          "type": "uint256"
        }
      ],
      "name": "burn",
      "outputs": [],
      "stateMutability": "nonpayable",
      "type": "function"
    },
    {
      "inputs": [],
      "name": "decimals",
      "outputs": [
        {
          "internalType": "uint8",
          "name": "",
          "type": "uint8"
        }
      ],
      "stateMutability": "pure",
      "type": "function"
    },
    {
      "inputs": [],
      "name": "isPaused",
      "outputs": [
        {
          "internalType": "bool",
          "name": "",
          "type": "bool"
        }
      ],
      "stateMutability": "view",
      "type": "function"
    },
    {
      "inputs": [
        {
          "internalType": "address",
          "name": "to",
          "type": "address"
        },
        {
          "internalType": "uint256",
          "name": "amount",
          "type": "uint256"
        }
      ],
      "name": "mint",
      "outputs": [],
      "stateMutability": "nonpayable",
      "type": "function"
    },
    {
      "inputs": [],
      "name": "name",
      "outputs": [
        {
          "internalType": "string",
          "name": "",
          "type": "string"
        }
      ],
      "stateMutability": "view",
      "type": "function"
    },
    {
      "inputs": [],
      "name": "pauseToken",
      "outputs": [],
      "stateMutability": "nonpayable",
      "type": "function"
    },
    {
      "inputs": [],
      "name": "paused",
      "outputs": [
        {
          "internalType": "bool",
          "name": "",
          "type": "bool"
        }
      ],
      "stateMutability": "view",
      "type": "function"
    },
    {
      "inputs": [],
      "name": "symbol",
      "outputs": [
        {
          "internalType": "string",
          "name": "",
          "type": "string"
        }
      ],
      "stateMutability": "view",
      "type": "function"
    },
    {
      "inputs": [],
      "name": "totalSupply",
      "outputs": [
        {
          "internalType": "uint256",
          "name": "",
          "type": "uint256"
        }
      ],
      "stateMutability": "view",
      "type": "function"
    },
    {
      "inputs": [
        {
          "internalType": "address",
          "name": "to",
          "type": "address"
        },
        {
          "internalType": "uint256",
          "name": "amount",
          "type": "uint256"
        }
      ],
      "name": "transfer",
      "outputs": [
        {
          "internalType": "bool",
          "name": "",
          "type": "bool"
        }
      ],
      "stateMutability": "nonpayable",
      "type": "function"
    },
    {
      "inputs": [
        {
          "internalType": "address",
          "name": "from",
          "type": "address"
        },
        {
          "internalType": "address",
          "name": "to",
          "type": "address"
        },
        {
          "internalType": "uint256",
          "name": "amount",
          "type": "uint256"
        }
      ],
      "name": "transferFrom",
      "outputs": [
        {
          "internalType": "bool",
          "name": "",
          "type": "bool"
        }
      ],
      "stateMutability": "nonpayable",
      "type": "function"
    },
    {
      "inputs": [],
      "name": "unpauseToken",
      "outputs": [],
      "stateMutability": "nonpayable",
      "type": "function"
    }
  ],
  "bytecode": "0x608060405234801561000f575f5ffd5b5060405161108b38038061108b83398101604081905261002e9161013c565b6040518060400160405280600e81526020016d2b32b934b3b7b632102a37b5b2b760911b815250604051806040016040528060048152602001635647415560e01b81525081600390816100819190610201565b50600461008e8282610201565b5050506001600160a01b0381166101115760405162461bcd60e51b815260206004820152603360248201527f412076616c696420416363657373436f6e74726f6c20636f6e7472616374206160448201527f646472657373206d757374206265207365742e00000000000000000000000000606482015260840160405180910390fd5b600580546001600160a01b0390921661010002610100600160a81b03199092169190911790556102bb565b5f6020828403121561014c575f5ffd5b81516001600160a01b0381168114610162575f5ffd5b9392505050565b634e487b7160e01b5f52604160045260245ffd5b600181811c9082168061019157607f821691505b6020821081036101af57634e487b7160e01b5f52602260045260245ffd5b50919050565b601f8211156101fc57805f5260205f20601f840160051c810160208510156101da5750805b601f840160051c820191505b818110156101f9575f81556001016101e6565b50505b505050565b81516001600160401b0381111561021a5761021a610169565b61022e81610228845461017d565b846101b5565b6020601f821160018114610260575f83156102495750848201515b5f19600385901b1c1916600184901b1784556101f9565b5f84815260208120601f198516915b8281101561028f578785015182556020948501946001909201910161026f565b50848210156102ac57868401515f19600387901b60f8161c191681555b50505050600190811b01905550565b610dc3806102c85f395ff3fe608060405234801561000f575f5ffd5b50600436106100f0575f3560e01c806342966c681161009357806395d89b411161006357806395d89b41146101d3578063a9059cbb146101db578063b187bd26146101ee578063dd62ed3e14610202575f5ffd5b806342966c681461018557806350669a03146101985780635c975abb146101a057806370a08231146101ab575f5ffd5b806323b872dd116100ce57806323b872dd146101475780632c3496271461015a578063313ce5671461016457806340c10f1914610172575f5ffd5b806306fdde03146100f4578063095ea7b31461011257806318160ddd14610135575b5f5ffd5b6100fc61023a565b6040516101099190610bf6565b60405180910390f35b610125610120366004610c5c565b6102ca565b6040519015158152602001610109565b6002545b604051908152602001610109565b610125610155366004610c84565b6102e3565b6101626102ff565b005b6040515f8152602001610109565b610162610180366004610c5c565b6103ee565b610162610193366004610cbe565b61050e565b610162610692565b60055460ff16610125565b6101396101b9366004610cd5565b6001600160a01b03165f9081526020819052604090205490565b6100fc61077b565b6101256101e9366004610c5c565b61078a565b60055461012590600160a81b900460ff1681565b610139610210366004610cee565b6001600160a01b039182165f90815260016020908152604080832093909416825291909152205490565b60606003805461024990610d1f565b80601f016020809104026020016040519081016040528092919081815260200182805461027590610d1f565b80156102c05780601f10610297576101008083540402835291602001916102c0565b820191905f5260205f20905b8154815290600101906020018083116102a357829003601f168201915b5050505050905090565b5f336102d78185856107a4565b60019150505b92915050565b5f6102ec6107b6565b6102f78484846107dc565b949350505050565b6005546040805163061a65b560e41b815290516101009092046001600160a01b03169163d09a20c59183916361a65b50916004808201926020929091908290030181865afa158015610353573d5f5f3e3d5ffd5b505050506040513d601f19601f820116820180604052508101906103779190610d57565b336040516001600160e01b031960e085901b16815260048101929092526001600160a01b031660248201526044015f6040518083038186803b1580156103bb575f5ffd5b505afa1580156103cd573d5f5f3e3d5ffd5b505050506103d96107ff565b6005805460ff60a81b1916600160a81b179055565b6005546040805163d539139360e01b815290516101009092046001600160a01b03169163d09a20c591839163d5391393916004808201926020929091908290030181865afa158015610442573d5f5f3e3d5ffd5b505050506040513d601f19601f820116820180604052508101906104669190610d57565b336040516001600160e01b031960e085901b16815260048101929092526001600160a01b031660248201526044015f6040518083038186803b1580156104aa575f5ffd5b505afa1580156104bc573d5f5f3e3d5ffd5b505050506104ca8282610859565b60405181815233906001600160a01b038416907ffd1ba5519feb014ad2f631cbd516bd3cec96be935749391554d122972593e7bf9060200160405180910390a35050565b6005546040805163282c51f360e01b815290516101009092046001600160a01b03169163d09a20c591839163282c51f3916004808201926020929091908290030181865afa158015610562573d5f5f3e3d5ffd5b505050506040513d601f19601f820116820180604052508101906105869190610d57565b336040516001600160e01b031960e085901b16815260048101929092526001600160a01b031660248201526044015f6040518083038186803b1580156105ca575f5ffd5b505afa1580156105dc573d5f5f3e3d5ffd5b50505050806105eb6101b93390565b101561064e5760405162461bcd60e51b815260206004820152602760248201527f56474155546f6b656e3a20696e73756666696369656e742062616c616e6365206044820152663a3790313ab93760c91b60648201526084015b60405180910390fd5b6106583382610891565b604051818152339081907f4bec313b95a1f7373890b5d9dce4c4737945f27093ca8f3e357bec1219299eaf9060200160405180910390a350565b6005546040805163061a65b560e41b815290516101009092046001600160a01b03169163d09a20c59183916361a65b50916004808201926020929091908290030181865afa1580156106e6573d5f5f3e3d5ffd5b505050506040513d601f19601f8201168201806040525081019061070a9190610d57565b336040516001600160e01b031960e085901b16815260048101929092526001600160a01b031660248201526044015f6040518083038186803b15801561074e575f5ffd5b505afa158015610760573d5f5f3e3d5ffd5b5050505061076c6108c5565b6005805460ff60a81b19169055565b60606004805461024990610d1f565b5f6107936107b6565b61079d83836108fe565b9392505050565b6107b1838383600161090b565b505050565b60055460ff16156107da5760405163d93c066560e01b815260040160405180910390fd5b565b5f336107e98582856109de565b6107f4858585610a54565b506001949350505050565b6108076107b6565b6005805460ff191660011790557f62e78cea01bee320cd4e420270b5ea74000d11b0c9f74754ebdbfc544b05a25861083c3390565b6040516001600160a01b03909116815260200160405180910390a1565b6001600160a01b0382166108825760405163ec442f0560e01b81525f6004820152602401610645565b61088d5f8383610aad565b5050565b6001600160a01b0382166108ba57604051634b637e8f60e11b81525f6004820152602401610645565b61088d825f83610aad565b6108cd610bd3565b6005805460ff191690557f5db9ee0a495bf2e6ff9c91a7834c1ba4fdd244a5e8aa4e537bd38aeae4b073aa3361083c565b5f336102d7818585610a54565b6001600160a01b0384166109345760405163e602df0560e01b81525f6004820152602401610645565b6001600160a01b03831661095d57604051634a1406b160e11b81525f6004820152602401610645565b6001600160a01b038085165f90815260016020908152604080832093871683529290522082905580156109d857826001600160a01b0316846001600160a01b03167f8c5be1e5ebec7d5bd14f71427d1e84f3dd0314c0f7b2291e5b200ac8c7c3b925846040516109cf91815260200190565b60405180910390a35b50505050565b6001600160a01b038381165f908152600160209081526040808320938616835292905220545f198110156109d85781811015610a4657604051637dc7a0d960e11b81526001600160a01b03841660048201526024810182905260448101839052606401610645565b6109d884848484035f61090b565b6001600160a01b038316610a7d57604051634b637e8f60e11b81525f6004820152602401610645565b6001600160a01b038216610aa65760405163ec442f0560e01b81525f6004820152602401610645565b6107b18383835b6001600160a01b038316610ad7578060025f828254610acc9190610d6e565b90915550610b479050565b6001600160a01b0383165f9081526020819052604090205481811015610b295760405163391434e360e21b81526001600160a01b03851660048201526024810182905260448101839052606401610645565b6001600160a01b0384165f9081526020819052604090209082900390555b6001600160a01b038216610b6357600280548290039055610b81565b6001600160a01b0382165f9081526020819052604090208054820190555b816001600160a01b0316836001600160a01b03167fddf252ad1be2c89b69c2b068fc378daa952ba7f163c4a11628f55a4df523b3ef83604051610bc691815260200190565b60405180910390a3505050565b60055460ff166107da57604051638dfc202b60e01b815260040160405180910390fd5b602081525f82518060208401525f5b81811015610c225760208186018101516040868401015201610c05565b505f604082850101526040601f19601f83011684010191505092915050565b80356001600160a01b0381168114610c57575f5ffd5b919050565b5f5f60408385031215610c6d575f5ffd5b610c7683610c41565b946020939093013593505050565b5f5f5f60608486031215610c96575f5ffd5b610c9f84610c41565b9250610cad60208501610c41565b929592945050506040919091013590565b5f60208284031215610cce575f5ffd5b5035919050565b5f60208284031215610ce5575f5ffd5b61079d82610c41565b5f5f60408385031215610cff575f5ffd5b610d0883610c41565b9150610d1660208401610c41565b90509250929050565b600181811c90821680610d3357607f821691505b602082108103610d5157634e487b7160e01b5f52602260045260245ffd5b50919050565b5f60208284031215610d67575f5ffd5b5051919050565b808201808211156102dd57634e487b7160e01b5f52601160045260245ffdfea264697066735822122009e4c04f837e0be1c663493f232ca39df4e93ef815f711d249d711675ee1273364736f6c634300081c0033",
  "linkReferences": {},
  "deployedLinkReferences": {}
}