{
  "_format": "hh-sol-artifact-1",
  "contractName": "VGAUUserKycManager",
  "sourceName": "contracts/VGAUUserKycManager.sol",
  "abi": [
    {
      "inputs": [
        {
          "internalType": "address",
          "name": "accessControlContract_",
          "type": "address"
        }
      ],
      "stateMutability": "nonpayable",
      "type": "constructor"
    },
    {
      "anonymous": false,
      "inputs": [
        {
          "indexed": true,
          "internalType": "address",
          "name": "user",
          "type": "address"
        },
        {
          "indexed": false,
          "internalType": "bool",
          "name": "status",
          "type": "bool"
        }
      ],
      "name": "VGTUserKycStatusChanged",
      "type": "event"
    },
    {
      "inputs": [
        {
          "internalType": "address",
          "name": "",
          "type": "address"
        }
      ],
      "name": "isKycPassed",
      "outputs": [
        {
          "internalType": "bool",
          "name": "",
          "type": "bool"
        }
      ],
      "stateMutability": "view",
      "type": "function"
    },
    {
      "inputs": [
        {
          "internalType": "address",
          "name": "user",
          "type": "address"
        },
        {
          "internalType": "bool",
          "name": "status",
          "type": "bool"
        }
      ],
      "name": "setKycStatus",
      "outputs": [],
      "stateMutability": "nonpayable",
      "type": "function"
    }
  ],
  "bytecode": "0x608060405234801561000f575f5ffd5b5060405161041438038061041483398101604081905261002e916100d2565b6001600160a01b0381166100ae5760405162461bcd60e51b815260206004820152603360248201527f412076616c696420416363657373436f6e74726f6c20636f6e7472616374206160448201527f646472657373206d757374206265207365742e00000000000000000000000000606482015260840160405180910390fd5b5f80546001600160a01b0319166001600160a01b03929092169190911790556100ff565b5f602082840312156100e2575f5ffd5b81516001600160a01b03811681146100f8575f5ffd5b9392505050565b6103088061010c5f395ff3fe608060405234801561000f575f5ffd5b5060043610610034575f3560e01c8063b08ab24514610038578063e37a35c71461006e575b5f5ffd5b61005a610046366004610262565b60016020525f908152604090205460ff1681565b604051901515815260200160405180910390f35b61008161007c366004610282565b610083565b005b5f546040805163016bfec960e11b815290516001600160a01b039092169163d09a20c59183916302d7fd92916004808201926020929091908290030181865afa1580156100d2573d5f5f3e3d5ffd5b505050506040513d601f19601f820116820180604052508101906100f691906102bb565b336040516001600160e01b031960e085901b16815260048101929092526001600160a01b031660248201526044015f6040518083038186803b15801561013a575f5ffd5b505afa15801561014c573d5f5f3e3d5ffd5b505050506001600160a01b0382165f9081526001602052604090205481151560ff9091161515036101e95760405162461bcd60e51b815260206004820152603c60248201527f56474155557365724b79634d616e616765723a2055736572204b59432073746160448201527f74757320697320616c7265616479206173207265717565737465642e00000000606482015260840160405180910390fd5b6001600160a01b0382165f81815260016020908152604091829020805460ff191685151590811790915591519182527fd0c84949d9efcdfd5e42028f65a99e58729f85ead7c15b6a964d52b2aabffe0e910160405180910390a25050565b80356001600160a01b038116811461025d575f5ffd5b919050565b5f60208284031215610272575f5ffd5b61027b82610247565b9392505050565b5f5f60408385031215610293575f5ffd5b61029c83610247565b9150602083013580151581146102b0575f5ffd5b809150509250929050565b5f602082840312156102cb575f5ffd5b505191905056fea26469706673582212209aa1011d0eee768ab07c05f9bd65191c5b12abf167785bb6cfb54f12dfdc327064736f6c634300081c0033",
  "linkReferences": {},
  "deployedLinkReferences": {}
}