{
  "_format": "hh-sol-artifact-1",
  "contractName": "VGAUAccessControl",
  "sourceName": "contracts/VGAUAccessControl.sol",
  "abi": [
    {
      "inputs": [
        {
          "internalType": "address",
          "name": "globalAdministratorUser",
          "type": "address"
        }
      ],
      "stateMutability": "nonpayable",
      "type": "constructor"
    },
    {
      "inputs": [],
      "name": "AccessControlBadConfirmation",
      "type": "error"
    },
    {
      "inputs": [
        {
          "internalType": "address",
          "name": "account",
          "type": "address"
        },
        {
          "internalType": "bytes32",
          "name": "neededRole",
          "type": "bytes32"
        }
      ],
      "name": "AccessControlUnauthorizedAccount",
      "type": "error"
    },
    {
      "inputs": [
        {
          "internalType": "uint256",
          "name": "value",
          "type": "uint256"
        },
        {
          "internalType": "uint256",
          "name": "length",
          "type": "uint256"
        }
      ],
      "name": "StringsInsufficientHexLength",
      "type": "error"
    },
    {
      "anonymous": false,
      "inputs": [
        {
          "indexed": true,
          "internalType": "bytes32",
          "name": "role",
          "type": "bytes32"
        },
        {
          "indexed": true,
          "internalType": "bytes32",
          "name": "previousAdminRole",
          "type": "bytes32"
        },
        {
          "indexed": true,
          "internalType": "bytes32",
          "name": "newAdminRole",
          "type": "bytes32"
        }
      ],
      "name": "RoleAdminChanged",
      "type": "event"
    },
    {
      "anonymous": false,
      "inputs": [
        {
          "indexed": true,
          "internalType": "bytes32",
          "name": "role",
          "type": "bytes32"
        },
        {
          "indexed": true,
          "internalType": "address",
          "name": "account",
          "type": "address"
        },
        {
          "indexed": true,
          "internalType": "address",
          "name": "sender",
          "type": "address"
        }
      ],
      "name": "RoleGranted",
      "type": "event"
    },
    {
      "anonymous": false,
      "inputs": [
        {
          "indexed": true,
          "internalType": "bytes32",
          "name": "role",
          "type": "bytes32"
        },
        {
          "indexed": true,
          "internalType": "address",
          "name": "account",
          "type": "address"
        },
        {
          "indexed": true,
          "internalType": "address",
          "name": "sender",
          "type": "address"
        }
      ],
      "name": "RoleRevoked",
      "type": "event"
    },
    {
      "inputs": [],
      "name": "BURNER_ROLE",
      "outputs": [
        {
          "internalType": "bytes32",
          "name": "",
          "type": "bytes32"
        }
      ],
      "stateMutability": "view",
      "type": "function"
    },
    {
      "inputs": [],
      "name": "DEFAULT_ADMIN_ROLE",
      "outputs": [
        {
          "internalType": "bytes32",
          "name": "",
          "type": "bytes32"
        }
      ],
      "stateMutability": "view",
      "type": "function"
    },
    {
      "inputs": [],
      "name": "EXCHANGE_ADMIN_ROLE",
      "outputs": [
        {
          "internalType": "bytes32",
          "name": "",
          "type": "bytes32"
        }
      ],
      "stateMutability": "view",
      "type": "function"
    },
    {
      "inputs": [],
      "name": "KYC_ADMIN_ROLE",
      "outputs": [
        {
          "internalType": "bytes32",
          "name": "",
          "type": "bytes32"
        }
      ],
      "stateMutability": "view",
      "type": "function"
    },
    {
      "inputs": [],
      "name": "MINTER_ROLE",
      "outputs": [
        {
          "internalType": "bytes32",
          "name": "",
          "type": "bytes32"
        }
      ],
      "stateMutability": "view",
      "type": "function"
    },
    {
      "inputs": [],
      "name": "RECHARGE_ADMIN_ROLE",
      "outputs": [
        {
          "internalType": "bytes32",
          "name": "",
          "type": "bytes32"
        }
      ],
      "stateMutability": "view",
      "type": "function"
    },
    {
      "inputs": [],
      "name": "TOKEN_OPERATION_PAUSE_ADMIN_ROLE",
      "outputs": [
        {
          "internalType": "bytes32",
          "name": "",
          "type": "bytes32"
        }
      ],
      "stateMutability": "view",
      "type": "function"
    },
    {
      "inputs": [
        {
          "internalType": "bytes32",
          "name": "role",
          "type": "bytes32"
        },
        {
          "internalType": "address",
          "name": "account",
          "type": "address"
        }
      ],
      "name": "checkRole",
      "outputs": [
        {
          "internalType": "bool",
          "name": "",
          "type": "bool"
        }
      ],
      "stateMutability": "view",
      "type": "function"
    },
    {
      "inputs": [
        {
          "internalType": "bytes32",
          "name": "role",
          "type": "bytes32"
        }
      ],
      "name": "getRoleAdmin",
      "outputs": [
        {
          "internalType": "bytes32",
          "name": "",
          "type": "bytes32"
        }
      ],
      "stateMutability": "view",
      "type": "function"
    },
    {
      "inputs": [
        {
          "internalType": "address",
          "name": "user",
          "type": "address"
        }
      ],
      "name": "grantGlobalAdminRole",
      "outputs": [],
      "stateMutability": "nonpayable",
      "type": "function"
    },
    {
      "inputs": [
        {
          "internalType": "bytes32",
          "name": "role",
          "type": "bytes32"
        },
        {
          "internalType": "address",
          "name": "account",
          "type": "address"
        }
      ],
      "name": "grantRole",
      "outputs": [],
      "stateMutability": "nonpayable",
      "type": "function"
    },
    {
      "inputs": [
        {
          "internalType": "bytes32",
          "name": "role",
          "type": "bytes32"
        },
        {
          "internalType": "address[]",
          "name": "accounts",
          "type": "address[]"
        }
      ],
      "name": "grantRoleBatch",
      "outputs": [],
      "stateMutability": "nonpayable",
      "type": "function"
    },
    {
      "inputs": [
        {
          "internalType": "bytes32",
          "name": "role",
          "type": "bytes32"
        },
        {
          "internalType": "address",
          "name": "account",
          "type": "address"
        }
      ],
      "name": "hasRole",
      "outputs": [
        {
          "internalType": "bool",
          "name": "",
          "type": "bool"
        }
      ],
      "stateMutability": "view",
      "type": "function"
    },
    {
      "inputs": [
        {
          "internalType": "bytes32",
          "name": "role",
          "type": "bytes32"
        },
        {
          "internalType": "address",
          "name": "callerConfirmation",
          "type": "address"
        }
      ],
      "name": "renounceRole",
      "outputs": [],
      "stateMutability": "nonpayable",
      "type": "function"
    },
    {
      "inputs": [
        {
          "internalType": "bytes32",
          "name": "role",
          "type": "bytes32"
        },
        {
          "internalType": "address",
          "name": "account",
          "type": "address"
        }
      ],
      "name": "requireRole",
      "outputs": [],
      "stateMutability": "view",
      "type": "function"
    },
    {
      "inputs": [
        {
          "internalType": "address",
          "name": "user",
          "type": "address"
        }
      ],
      "name": "revokeGlobalAdminRole",
      "outputs": [],
      "stateMutability": "nonpayable",
      "type": "function"
    },
    {
      "inputs": [
        {
          "internalType": "bytes32",
          "name": "role",
          "type": "bytes32"
        },
        {
          "internalType": "address",
          "name": "account",
          "type": "address"
        }
      ],
      "name": "revokeRole",
      "outputs": [],
      "stateMutability": "nonpayable",
      "type": "function"
    },
    {
      "inputs": [
        {
          "internalType": "bytes32",
          "name": "role",
          "type": "bytes32"
        },
        {
          "internalType": "address[]",
          "name": "accounts",
          "type": "address[]"
        }
      ],
      "name": "revokeRoleBatch",
      "outputs": [],
      "stateMutability": "nonpayable",
      "type": "function"
    },
    {
      "inputs": [
        {
          "internalType": "bytes4",
          "name": "interfaceId",
          "type": "bytes4"
        }
      ],
      "name": "supportsInterface",
      "outputs": [
        {
          "internalType": "bool",
          "name": "",
          "type": "bool"
        }
      ],
      "stateMutability": "view",
      "type": "function"
    }
  ],
  "bytecode": "0x608060405234801561000f575f5ffd5b50604051610dd0380380610dd083398101604081905261002e91610168565b6001600160a01b0381166100ae5760405162461bcd60e51b815260206004820152603960248201527f416e20696e697469616c20676c6f62616c2061646d696e6973747261746f722060448201527f61646472657373206d7573742062652070726f76696465642e00000000000000606482015260840160405180910390fd5b6100b85f826100bf565b5050610195565b5f828152602081815260408083206001600160a01b038516845290915281205460ff1661015f575f838152602081815260408083206001600160a01b03861684529091529020805460ff191660011790556101173390565b6001600160a01b0316826001600160a01b0316847f2f8788117e7eff1d82e926ec794901d17c78024a50270940304540a733656f0d60405160405180910390a4506001610162565b505f5b92915050565b5f60208284031215610178575f5ffd5b81516001600160a01b038116811461018e575f5ffd5b9392505050565b610c2e806101a25f395ff3fe608060405234801561000f575f5ffd5b506004361061011c575f3560e01c806361a65b50116100a9578063ca64d9b41161006e578063ca64d9b4146102b6578063d09a20c5146102c9578063d5391393146102dc578063d547741f14610303578063fd47852b14610316575f5ffd5b806361a65b501461023b57806382f51fa614610262578063881ae6fa1461027557806391d148541461029c578063a217fddf146102af575f5ffd5b8063282c51f3116100ef578063282c51f3146101b25780632f2ff15d146101d957806336568abe146101ee5780634ac0c18314610201578063609edd1f14610228575f5ffd5b806301ffc9a71461012057806302d7fd921461014857806312d9a6ad1461017d578063248a9ca314610190575b5f5ffd5b61013361012e366004610942565b610329565b60405190151581526020015b60405180910390f35b61016f7f811427a0fa4932aef534bba16bc34e9b7b2d7d2a79c475fca1765f6cc1faebea81565b60405190815260200161013f565b61013361018b366004610984565b61035f565b61016f61019e3660046109ae565b5f9081526020819052604090206001015490565b61016f7f3c11d16cbaffd01df69ce1c404f6340ee057498f5f00246190ea54220576a84881565b6101ec6101e7366004610984565b610371565b005b6101ec6101fc366004610984565b61039b565b61016f7f541943c4a49765b7940b4b1392c4b1f8ede6efd4e23572572987ae02e569a78681565b6101ec6102363660046109c5565b6103d3565b61016f7fcfca87b7b9a4da71beb1329b8e288dea321d63e05b8e0ebad77eb9ce236f887f81565b6101ec6102703660046109f2565b610484565b61016f7f2af49a4ba094ac1e9ed3448e8d9029dd589ec56bad67a291548b3216f731d3a881565b6101336102aa366004610984565b6104d5565b61016f5f81565b6101ec6102c43660046109c5565b6104fd565b6101ec6102d7366004610984565b6105a6565b61016f7f9f2df0fed2c77648de5860a4cc508cd0818c85b8b8a1ab4ceeef8d981c8956a681565b6101ec610311366004610984565b610603565b6101ec6103243660046109f2565b610627565b5f6001600160e01b03198216637965db0b60e01b148061035957506301ffc9a760e01b6001600160e01b03198316145b92915050565b5f61036a83836104d5565b9392505050565b5f8281526020819052604090206001015461038b81610678565b6103958383610685565b50505050565b6001600160a01b03811633146103c45760405163334bd91960e11b815260040160405180910390fd5b6103ce8282610714565b505050565b5f8080526020527fad3228b676f7d3cd4284a5443f17f1962b36e491b30a40b2405849e597ba5fb65461040581610678565b6001600160a01b03821661047a5760405162461bcd60e51b815260206004820152603160248201527f43616e6e6f74207265766f6b6520676c6f62616c2061646d696e20726f6c652060448201527066726f6d207a65726f206164647265737360781b60648201526084015b60405180910390fd5b6103ce5f83610714565b5f8281526020819052604090206001015461049e81610678565b5f5b8251811015610395576104cc848483815181106104bf576104bf610ac9565b6020026020010151610714565b506001016104a0565b5f918252602082815260408084206001600160a01b0393909316845291905290205460ff1690565b5f8080526020527fad3228b676f7d3cd4284a5443f17f1962b36e491b30a40b2405849e597ba5fb65461052f81610678565b6001600160a01b03821661059c5760405162461bcd60e51b815260206004820152602e60248201527f43616e6e6f74206772616e7420676c6f62616c2061646d696e20726f6c65207460448201526d6f207a65726f206164647265737360901b6064820152608401610471565b6103ce5f83610685565b6105b082826104d5565b6105ff576105bd8161077d565b6105c883602061078f565b6040516020016105d9929190610aff565b60408051601f198184030181529082905262461bcd60e51b825261047191600401610b73565b5050565b5f8281526020819052604090206001015461061d81610678565b6103958383610714565b5f8281526020819052604090206001015461064181610678565b5f5b82518110156103955761066f8484838151811061066257610662610ac9565b6020026020010151610685565b50600101610643565b6106828133610909565b50565b5f61069083836104d5565b61070d575f838152602081815260408083206001600160a01b03861684529091529020805460ff191660011790556106c53390565b6001600160a01b0316826001600160a01b0316847f2f8788117e7eff1d82e926ec794901d17c78024a50270940304540a733656f0d60405160405180910390a4506001610359565b505f610359565b5f61071f83836104d5565b1561070d575f838152602081815260408083206001600160a01b0386168085529252808320805460ff1916905551339286917ff6391f5c32d9c69d2a47ea670b442974b53935d1edc7fd64eb21e047a839171b9190a4506001610359565b60606103596001600160a01b03831660145b6060825f61079e846002610bb9565b6107a9906002610bd0565b67ffffffffffffffff8111156107c1576107c16109de565b6040519080825280601f01601f1916602001820160405280156107eb576020820181803683370190505b509050600360fc1b815f8151811061080557610805610ac9565b60200101906001600160f81b03191690815f1a905350600f60fb1b8160018151811061083357610833610ac9565b60200101906001600160f81b03191690815f1a9053505f610855856002610bb9565b610860906001610bd0565b90505b60018111156108d7576f181899199a1a9b1b9c1cb0b131b232b360811b83600f166010811061089457610894610ac9565b1a60f81b8282815181106108aa576108aa610ac9565b60200101906001600160f81b03191690815f1a90535060049290921c916108d081610be3565b9050610863565b5081156109015760405163e22e27eb60e01b81526004810186905260248101859052604401610471565b949350505050565b61091382826104d5565b6105ff5760405163e2517d3f60e01b81526001600160a01b038216600482015260248101839052604401610471565b5f60208284031215610952575f5ffd5b81356001600160e01b03198116811461036a575f5ffd5b80356001600160a01b038116811461097f575f5ffd5b919050565b5f5f60408385031215610995575f5ffd5b823591506109a560208401610969565b90509250929050565b5f602082840312156109be575f5ffd5b5035919050565b5f602082840312156109d5575f5ffd5b61036a82610969565b634e487b7160e01b5f52604160045260245ffd5b5f5f60408385031215610a03575f5ffd5b82359150602083013567ffffffffffffffff811115610a20575f5ffd5b8301601f81018513610a30575f5ffd5b803567ffffffffffffffff811115610a4a57610a4a6109de565b8060051b604051601f19603f830116810181811067ffffffffffffffff82111715610a7757610a776109de565b604052918252602081840181019290810188841115610a94575f5ffd5b6020850194505b83851015610aba57610aac85610969565b815260209485019401610a9b565b50809450505050509250929050565b634e487b7160e01b5f52603260045260245ffd5b5f5b83811015610af7578181015183820152602001610adf565b50505f910152565b7f416363657373436f6e74726f6c3a206163636f756e742000000000000000000081525f8351610b36816017850160208801610add565b7001034b99036b4b9b9b4b733903937b6329607d1b6017918401918201528351610b67816028840160208801610add565b01602801949350505050565b602081525f8251806020840152610b91816040850160208701610add565b601f01601f19169190910160400192915050565b634e487b7160e01b5f52601160045260245ffd5b808202811582820484141761035957610359610ba5565b8082018082111561035957610359610ba5565b5f81610bf157610bf1610ba5565b505f19019056fea26469706673582212206113655fff3d7deae13208b47a802a90f8d6ef0c4c05ab45c3e54fbf792aaaf564736f6c634300081c0033",
  "linkReferences": {},
  "deployedLinkReferences": {}
}