{
  "_format": "hh-sol-artifact-1",
  "contractName": "VGAUPlatformRecharge",
  "sourceName": "contracts/VGAUPlatformRecharge.sol",
  "abi": [
    {
      "inputs": [
        {
          "internalType": "address",
          "name": "accessControlContract_",
          "type": "address"
        },
        {
          "internalType": "address",
          "name": "fundPoolAddress_",
          "type": "address"
        },
        {
          "internalType": "address",
          "name": "usdtTokenContract_",
          "type": "address"
        },
        {
          "internalType": "address",
          "name": "vgauTokenContract_",
          "type": "address"
        }
      ],
      "stateMutability": "nonpayable",
      "type": "constructor"
    },
    {
      "inputs": [],
      "name": "EnforcedPause",
      "type": "error"
    },
    {
      "inputs": [],
      "name": "ExpectedPause",
      "type": "error"
    },
    {
      "inputs": [
        {
          "internalType": "address",
          "name": "token",
          "type": "address"
        }
      ],
      "name": "SafeERC20FailedOperation",
      "type": "error"
    },
    {
      "anonymous": false,
      "inputs": [
        {
          "indexed": true,
          "internalType": "address",
          "name": "operator",
          "type": "address"
        },
        {
          "indexed": false,
          "internalType": "address",
          "name": "oldAddress",
          "type": "address"
        },
        {
          "indexed": false,
          "internalType": "address",
          "name": "currentAddress",
          "type": "address"
        }
      ],
      "name": "FundPoolAddressChanged",
      "type": "event"
    },
    {
      "anonymous": false,
      "inputs": [
        {
          "indexed": false,
          "internalType": "address",
          "name": "account",
          "type": "address"
        }
      ],
      "name": "Paused",
      "type": "event"
    },
    {
      "anonymous": false,
      "inputs": [
        {
          "indexed": true,
          "internalType": "address",
          "name": "user",
          "type": "address"
        },
        {
          "indexed": false,
          "internalType": "uint256",
          "name": "amount",
          "type": "uint256"
        },
        {
          "indexed": true,
          "internalType": "uint256",
          "name": "rechargeId",
          "type": "uint256"
        }
      ],
      "name": "USDTRecharged",
      "type": "event"
    },
    {
      "anonymous": false,
      "inputs": [
        {
          "indexed": false,
          "internalType": "address",
          "name": "account",
          "type": "address"
        }
      ],
      "name": "Unpaused",
      "type": "event"
    },
    {
      "anonymous": false,
      "inputs": [
        {
          "indexed": true,
          "internalType": "address",
          "name": "user",
          "type": "address"
        },
        {
          "indexed": false,
          "internalType": "uint256",
          "name": "amount",
          "type": "uint256"
        },
        {
          "indexed": true,
          "internalType": "uint256",
          "name": "rechargeId",
          "type": "uint256"
        }
      ],
      "name": "VGAURecharged",
      "type": "event"
    },
    {
      "inputs": [],
      "name": "fundPoolAddress",
      "outputs": [
        {
          "internalType": "address",
          "name": "",
          "type": "address"
        }
      ],
      "stateMutability": "view",
      "type": "function"
    },
    {
      "inputs": [],
      "name": "isPaused",
      "outputs": [
        {
          "internalType": "bool",
          "name": "",
          "type": "bool"
        }
      ],
      "stateMutability": "view",
      "type": "function"
    },
    {
      "inputs": [],
      "name": "pauseRecharge",
      "outputs": [],
      "stateMutability": "nonpayable",
      "type": "function"
    },
    {
      "inputs": [],
      "name": "paused",
      "outputs": [
        {
          "internalType": "bool",
          "name": "",
          "type": "bool"
        }
      ],
      "stateMutability": "view",
      "type": "function"
    },
    {
      "inputs": [
        {
          "internalType": "uint256",
          "name": "usdtAmount",
          "type": "uint256"
        }
      ],
      "name": "rechargeUSDT",
      "outputs": [],
      "stateMutability": "nonpayable",
      "type": "function"
    },
    {
      "inputs": [
        {
          "internalType": "uint256",
          "name": "vgauAmount",
          "type": "uint256"
        }
      ],
      "name": "rechargeVGAU",
      "outputs": [],
      "stateMutability": "nonpayable",
      "type": "function"
    },
    {
      "inputs": [
        {
          "internalType": "address",
          "name": "newAddress",
          "type": "address"
        }
      ],
      "name": "setFundPoolAddress",
      "outputs": [],
      "stateMutability": "nonpayable",
      "type": "function"
    },
    {
      "inputs": [],
      "name": "unpauseRecharge",
      "outputs": [],
      "stateMutability": "nonpayable",
      "type": "function"
    },
    {
      "inputs": [],
      "name": "usdtToken",
      "outputs": [
        {
          "internalType": "contract IERC20",
          "name": "",
          "type": "address"
        }
      ],
      "stateMutability": "view",
      "type": "function"
    },
    {
      "inputs": [],
      "name": "vgauToken",
      "outputs": [
        {
          "internalType": "contract VGAUToken",
          "name": "",
          "type": "address"
        }
      ],
      "stateMutability": "view",
      "type": "function"
    }
  ],
  "bytecode": "0x608060405234801561000f575f5ffd5b50604051610d20380380610d2083398101604081905261002e9161026b565b6001600160a01b0384166100af5760405162461bcd60e51b815260206004820152603360248201527f412076616c696420416363657373436f6e74726f6c20636f6e7472616374206160448201527f646472657373206d757374206265207365742e0000000000000000000000000060648201526084015b60405180910390fd5b6001600160a01b0383166101175760405162461bcd60e51b815260206004820152602960248201527f5468652061646472657373206f66207468652066756e6420706f6f6c206d75736044820152683a1031329039b2ba1760b91b60648201526084016100a6565b6001600160a01b0382166101865760405162461bcd60e51b815260206004820152603060248201527f412076616c6964205553445420746f6b656e20636f6e7472616374206164647260448201526f32b9b99036bab9ba1031329039b2ba1760811b60648201526084016100a6565b6001600160a01b0381166101f55760405162461bcd60e51b815260206004820152603060248201527f412076616c6964205647415520746f6b656e20636f6e7472616374206164647260448201526f32b9b99036bab9ba1031329039b2ba1760811b60648201526084016100a6565b5f80546001600160a01b0395861661010002610100600160a81b0319909116179055600380549385166001600160a01b03199485161790556002805492851692841692909217909155600180549190931691161790556102bc565b80516001600160a01b0381168114610266575f5ffd5b919050565b5f5f5f5f6080858703121561027e575f5ffd5b61028785610250565b935061029560208601610250565b92506102a360408601610250565b91506102b160608601610250565b905092959194509250565b610a57806102c95f395ff3fe608060405234801561000f575f5ffd5b506004361061009b575f3560e01c80637c8eed52116100635780637c8eed5214610120578063a98ad46c14610128578063b187bd261461013b578063b7b104e71461014e578063f08ffc9014610161575f5ffd5b8063050609721461009f5780633e641eab146100cf57806359e5153f146100e45780635c975abb146100f75780636148eaf21461010d575b5f5ffd5b6003546100b2906001600160a01b031681565b6040516001600160a01b0390911681526020015b60405180910390f35b6100e26100dd3660046109a2565b610169565b005b6001546100b2906001600160a01b031681565b5f5460ff165b60405190151581526020016100c6565b6100e261011b3660046109a2565b610241565b6100e261030c565b6002546100b2906001600160a01b031681565b5f546100fd90600160a81b900460ff1681565b6100e261015c3660046109b9565b6103f3565b6100e2610715565b610171610802565b5f81116101d05760405162461bcd60e51b815260206004820152602260248201527f75736474416d6f756e74206d7573742062652067726561746572207468616e20604482015261181760f11b60648201526084015b60405180910390fd5b60048054905f6101df836109e6565b9091555050600454610205336003546002546001600160a01b0390811692911685610827565b604051828152819033907f40b46128a060e5ea6b6c3c16ce58c3297e145932f290312b41cd14715263a06d906020015b60405180910390a35050565b610249610802565b5f81116102a35760405162461bcd60e51b815260206004820152602260248201527f76676175416d6f756e74206d7573742062652067726561746572207468616e20604482015261181760f11b60648201526084016101c7565b60048054905f6102b2836109e6565b90915550506004546102d8336003546001546001600160a01b0390811692911685610827565b604051828152819033907f6ce9ef01b1029e91f405b8a908f5892aff353864a619bc105b72a6fb65990b9a90602001610235565b5f546040805163440d737d60e11b815290516101009092046001600160a01b03169163d09a20c591839163881ae6fa916004808201926020929091908290030181865afa15801561035f573d5f5f3e3d5ffd5b505050506040513d601f19601f820116820180604052508101906103839190610a0a565b336040516001600160e01b031960e085901b16815260048101929092526001600160a01b031660248201526044015f6040518083038186803b1580156103c7575f5ffd5b505afa1580156103d9573d5f5f3e3d5ffd5b505050506103e5610887565b5f805460ff60a81b19169055565b5f546040805163440d737d60e11b815290516101009092046001600160a01b03169163d09a20c591839163881ae6fa916004808201926020929091908290030181865afa158015610446573d5f5f3e3d5ffd5b505050506040513d601f19601f8201168201806040525081019061046a9190610a0a565b336040516001600160e01b031960e085901b16815260048101929092526001600160a01b031660248201526044015f6040518083038186803b1580156104ae575f5ffd5b505afa1580156104c0573d5f5f3e3d5ffd5b5050506001600160a01b038216905061052d5760405162461bcd60e51b815260206004820152602960248201527f546865206e657720616464726573732063616e6e6f742062652061207a65726f6044820152681030b2323932b9b99760b91b60648201526084016101c7565b6002546040516370a0823160e01b81526001600160a01b0383811660048301525f9216906370a0823190602401602060405180830381865afa158015610575573d5f5f3e3d5ffd5b505050506040513d601f19601f820116820180604052508101906105999190610a0a565b118061060e57506001546040516370a0823160e01b81526001600160a01b0383811660048301525f9216906370a0823190602401602060405180830381865afa1580156105e8573d5f5f3e3d5ffd5b505050506040513d601f19601f8201168201806040525081019061060c9190610a0a565b115b61069f5760405162461bcd60e51b815260206004820152605660248201527f546865206e65772061646472657373206d7573742068617665206174206c656160448201527f73742031205553445420746f6b656e206f722031205647415520746f6b656e206064820152753a3790383937bb329034ba39903b30b634b234ba3c9760511b608482015260a4016101c7565b600380546001600160a01b038381166001600160a01b0319831617909255166106c53390565b600354604080516001600160a01b038581168252928316602082015292909116917fcd991bb1be561c8c2a69ad1bf19ac61d6196cd6e9e8b824d8552535640c49956910160405180910390a25050565b5f546040805163440d737d60e11b815290516101009092046001600160a01b03169163d09a20c591839163881ae6fa916004808201926020929091908290030181865afa158015610768573d5f5f3e3d5ffd5b505050506040513d601f19601f8201168201806040525081019061078c9190610a0a565b336040516001600160e01b031960e085901b16815260048101929092526001600160a01b031660248201526044015f6040518083038186803b1580156107d0575f5ffd5b505afa1580156107e2573d5f5f3e3d5ffd5b505050506107ee6108d8565b5f805460ff60a81b1916600160a81b179055565b5f5460ff16156108255760405163d93c066560e01b815260040160405180910390fd5b565b604080516001600160a01b0385811660248301528416604482015260648082018490528251808303909101815260849091019091526020810180516001600160e01b03166323b872dd60e01b179052610881908590610914565b50505050565b61088f610980565b5f805460ff191690557f5db9ee0a495bf2e6ff9c91a7834c1ba4fdd244a5e8aa4e537bd38aeae4b073aa335b6040516001600160a01b03909116815260200160405180910390a1565b6108e0610802565b5f805460ff191660011790557f62e78cea01bee320cd4e420270b5ea74000d11b0c9f74754ebdbfc544b05a2586108bb3390565b5f5f60205f8451602086015f885af180610933576040513d5f823e3d81fd5b50505f513d9150811561094a578060011415610957565b6001600160a01b0384163b155b1561088157604051635274afe760e01b81526001600160a01b03851660048201526024016101c7565b5f5460ff1661082557604051638dfc202b60e01b815260040160405180910390fd5b5f602082840312156109b2575f5ffd5b5035919050565b5f602082840312156109c9575f5ffd5b81356001600160a01b03811681146109df575f5ffd5b9392505050565b5f60018201610a0357634e487b7160e01b5f52601160045260245ffd5b5060010190565b5f60208284031215610a1a575f5ffd5b505191905056fea2646970667358221220d6e03b9037b36b32efba8f237eff1c3f9b1ffbcde5afd1afec0018eba2274fba64736f6c634300081c0033",
  "linkReferences": {},
  "deployedLinkReferences": {}
}